{
  "transactions": [
    {
      "hash": "0xc4ddca33cf1919241dc85b7c9d420a3838fdeccfb749f7ff425760932247d37b",
      "transactionType": "CALL",
      "contractName": null,
      "contractAddress": "0xd53b8bed28e122ea20dcc90d3991a614ec163a21",
      "function": "upgradeTo(address)",
      "arguments": [
        "0x42b3AbAA7535557D7C1d106704129A8d0716de75"
      ],
      "transaction": {
        "from": "0x5a9e4ba56bf8139cacc7fe72cb18e9ea276317fb",
        "to": "0xd53b8bed28e122ea20dcc90d3991a614ec163a21",
        "gas": "0xd350",
        "value": "0x0",
        "input": "0x3659cfe600000000000000000000000042b3abaa7535557d7c1d106704129a8d0716de75",
        "nonce": "0x2f7",
        "chainId": "0xaa37dc",
        "accessList": null,
        "type": null
      },
      "additionalContracts": [],
      "isFixedGasLimit": false
    }
  ],
  "receipts": [
    {
      "status": "0x1",
      "cumulativeGasUsed": "0x20c294",
      "logs": [
        {
          "address": "0xd53b8bed28e122ea20dcc90d3991a614ec163a21",
          "topics": [
            "0xbc7cd75a20ee27fd9adebab32041f755214dbc6bffa90cc0225b39da2e5c2d3b",
            "0x00000000000000000000000042b3abaa7535557d7c1d106704129a8d0716de75"
          ],
          "data": "0x",
          "blockHash": "0x3d6624d14089bad92e02f46f2367c10fd40e5ecdae1b87200009cc1ec94eee67",
          "blockNumber": "0x141e5fc",
          "transactionHash": "0xc4ddca33cf1919241dc85b7c9d420a3838fdeccfb749f7ff425760932247d37b",
          "transactionIndex": "0xa",
          "logIndex": "0x1f",
          "removed": false
        }
      ],
      "logsBloom": "0x00000000000000000000000000000000400000000000000000000000000000000000000000000000000000000000000000000000000000000000000000000000000000000000000000000000000002100000000000000000000000000000000000000000000000000000000001000000000000000000000000000000000000000000000000000000000000000000000000800000000000000000000000080000000000000000000000000000000000000000000000000000000000000000000000000020000000000000200000000000000000000000000000080000000000000000000000000000000000000000000000000000000000000000000000000000",
      "type": "0x0",
      "transactionHash": "0xc4ddca33cf1919241dc85b7c9d420a3838fdeccfb749f7ff425760932247d37b",
      "transactionIndex": "0xa",
      "blockHash": "0x3d6624d14089bad92e02f46f2367c10fd40e5ecdae1b87200009cc1ec94eee67",
      "blockNumber": "0x141e5fc",
      "gasUsed": "0x98fe",
      "effectiveGasPrice": "0xf4344",
      "from": "0x5a9e4ba56bf8139cacc7fe72cb18e9ea276317fb",
      "to": "0xd53b8bed28e122ea20dcc90d3991a614ec163a21",
      "contractAddress": null,
      "l1BaseFeeScalar": "0x1db0",
      "l1BlobBaseFee": "0x14975766f3",
      "l1BlobBaseFeeScalar": "0xd2730",
      "l1Fee": "0x7135ec5c8a2",
      "l1GasPrice": "0x2fe8a9507",
      "l1GasUsed": "0x640"
    }
  ],
  "libraries": [],
  "pending": [],
  "returns": {},
  "timestamp": 1733994409,
  "chain": 11155420,
  "commit": "89d0290"
}