{
  "transactions": [
    {
      "hash": "0x47bea3bcbbfe8ecab9af0b173342dcfddca7fb117ddbe9950cc139825b9043ef",
      "transactionType": "CALL",
      "contractName": null,
      "contractAddress": "0xd53b8bed28e122ea20dcc90d3991a614ec163a21",
      "function": "upgradeTo(address)",
      "arguments": [
        "0xC4381A7b00D2dDCDc8C9fF8c7627Bd36bBe76ac1"
      ],
      "transaction": {
        "from": "0x5a9e4ba56bf8139cacc7fe72cb18e9ea276317fb",
        "to": "0xd53b8bed28e122ea20dcc90d3991a614ec163a21",
        "gas": "0xd35f",
        "value": "0x0",
        "input": "0x3659cfe6000000000000000000000000c4381a7b00d2ddcdc8c9ff8c7627bd36bbe76ac1",
        "nonce": "0x2fd",
        "chainId": "0xaa37dc",
        "accessList": null,
        "type": null
      },
      "additionalContracts": [],
      "isFixedGasLimit": false
    }
  ],
  "receipts": [
    {
      "status": "0x1",
      "cumulativeGasUsed": "0x17884e",
      "logs": [
        {
          "address": "0xd53b8bed28e122ea20dcc90d3991a614ec163a21",
          "topics": [
            "0xbc7cd75a20ee27fd9adebab32041f755214dbc6bffa90cc0225b39da2e5c2d3b",
            "0x000000000000000000000000c4381a7b00d2ddcdc8c9ff8c7627bd36bbe76ac1"
          ],
          "data": "0x",
          "blockHash": "0x00d9ea5648b44fdecf7eab88d87aa80b667729dae888f3b18ca57fba15829c81",
          "blockNumber": "0x1422f7b",
          "transactionHash": "0x47bea3bcbbfe8ecab9af0b173342dcfddca7fb117ddbe9950cc139825b9043ef",
          "transactionIndex": "0x5",
          "logIndex": "0x10",
          "removed": false
        }
      ],
      "logsBloom": "0x00000000000000000000000000000000400000000000000000000000000000000000000000000000000000000000000000000000000000000000000000000000000000000000000000000000000002100000000000000000000000000000000000000002000000000000000000000000000000000000000000000000000000000000000400000000000000000000000000000000000000000000000000080000000000000000000000000000000000000000000000000000000000000000000000000020000040000000200000000000000000000000000000000000000000000000000000000000000000000000000000000000000000000000000000000000",
      "type": "0x0",
      "transactionHash": "0x47bea3bcbbfe8ecab9af0b173342dcfddca7fb117ddbe9950cc139825b9043ef",
      "transactionIndex": "0x5",
      "blockHash": "0x00d9ea5648b44fdecf7eab88d87aa80b667729dae888f3b18ca57fba15829c81",
      "blockNumber": "0x1422f7b",
      "gasUsed": "0x9908",
      "effectiveGasPrice": "0xf4340",
      "from": "0x5a9e4ba56bf8139cacc7fe72cb18e9ea276317fb",
      "to": "0xd53b8bed28e122ea20dcc90d3991a614ec163a21",
      "contractAddress": null,
      "l1BaseFeeScalar": "0x1db0",
      "l1BlobBaseFee": "0x25",
      "l1BlobBaseFeeScalar": "0xd2730",
      "l1Fee": "0x20c3ca3247",
      "l1GasPrice": "0x2b1c90b88",
      "l1GasUsed": "0x640"
    }
  ],
  "libraries": [],
  "pending": [],
  "returns": {},
  "timestamp": 1734032040,
  "chain": 11155420,
  "commit": "900ff9d"
}