{
  "transactions": [
    {
      "hash": "0x3777a96e1d35a5cc2e883583b28e8914c78e7504f7d79cae301dd346c55851bf",
      "transactionType": "CALL",
      "contractName": null,
      "contractAddress": "0xd53b8bed28e122ea20dcc90d3991a614ec163a21",
      "function": "upgradeTo(address)",
      "arguments": [
        "0xcd48C949178A5A5B227d44D5a2B9a5AE4e4E1180"
      ],
      "transaction": {
        "from": "0x5a9e4ba56bf8139cacc7fe72cb18e9ea276317fb",
        "to": "0xd53b8bed28e122ea20dcc90d3991a614ec163a21",
        "gas": "0xdfae",
        "value": "0x0",
        "input": "0x3659cfe6000000000000000000000000cd48c949178a5a5b227d44d5a2b9a5ae4e4e1180",
        "nonce": "0x336",
        "chainId": "0xaa37dc"
      },
      "additionalContracts": [],
      "isFixedGasLimit": false
    }
  ],
  "receipts": [
    {
      "status": "0x1",
      "cumulativeGasUsed": "0x2ce043",
      "logs": [
        {
          "address": "0xd53b8bed28e122ea20dcc90d3991a614ec163a21",
          "topics": [
            "0xbc7cd75a20ee27fd9adebab32041f755214dbc6bffa90cc0225b39da2e5c2d3b",
            "0x000000000000000000000000cd48c949178a5a5b227d44d5a2b9a5ae4e4e1180"
          ],
          "data": "0x",
          "blockHash": "0x55eade16cdf39fb661daecfe408ae1a3aaec583ee7fd8b6bf01c295a7be26a8c",
          "blockNumber": "0x1584add",
          "transactionHash": "0x3777a96e1d35a5cc2e883583b28e8914c78e7504f7d79cae301dd346c55851bf",
          "transactionIndex": "0x4",
          "logIndex": "0x21",
          "removed": false
        }
      ],
      "logsBloom": "0x00000010000000000000000000040000400000000000000000000000000000000000000000000000000000000000000000000000000000000000000000000000000000000000000000000000000002100000000000000000000000000000000000000000000000000000000000000000000000000000000000000000000000000000000000000000000000000000000000000000000000000000000000080000000000000000000000000000000000000000000000000000000000000000000000000020000000000000200000000000000000000000000000000000000000000000000000000000000000000000008000000000000000000000000000000000",
      "type": "0x0",
      "transactionHash": "0x3777a96e1d35a5cc2e883583b28e8914c78e7504f7d79cae301dd346c55851bf",
      "transactionIndex": "0x4",
      "blockHash": "0x55eade16cdf39fb661daecfe408ae1a3aaec583ee7fd8b6bf01c295a7be26a8c",
      "blockNumber": "0x1584add",
      "gasUsed": "0x98f2",
      "effectiveGasPrice": "0xf433c",
      "from": "0x5a9e4ba56bf8139cacc7fe72cb18e9ea276317fb",
      "to": "0xd53b8bed28e122ea20dcc90d3991a614ec163a21",
      "contractAddress": null,
      "l1BaseFeeScalar": "0x1db0",
      "l1BlobBaseFee": "0x34d520ab4b",
      "l1BlobBaseFeeScalar": "0xd2730",
      "l1Fee": "0x11fdb4e910d6",
      "l1GasPrice": "0x43d1b94ce",
      "l1GasUsed": "0x640"
    }
  ],
  "libraries": [],
  "pending": [],
  "returns": {},
  "timestamp": 1736929640,
  "chain": 11155420,
  "commit": "dcbf47f"
}