{
  "transactions": [
    {
      "hash": "0xb150d207efe9d9e966e4e716a04f4f4da92cc008f7e79e5dbae30b55e2dee33a",
      "transactionType": "CALL",
      "contractName": null,
      "contractAddress": "0xd53b8bed28e122ea20dcc90d3991a614ec163a21",
      "function": "upgradeTo(address)",
      "arguments": [
        "0x7bc8778067F90c6fdff87a0CAfba9C62fBA907d5"
      ],
      "transaction": {
        "from": "0x5a9e4ba56bf8139cacc7fe72cb18e9ea276317fb",
        "to": "0xd53b8bed28e122ea20dcc90d3991a614ec163a21",
        "gas": "0xe000",
        "value": "0x0",
        "input": "0x3659cfe60000000000000000000000007bc8778067f90c6fdff87a0cafba9c62fba907d5",
        "nonce": "0x307",
        "chainId": "0xaa37dc",
        "accessList": null,
        "type": null
      },
      "additionalContracts": [],
      "isFixedGasLimit": false
    }
  ],
  "receipts": [
    {
      "status": "0x1",
      "cumulativeGasUsed": "0x2a66d9",
      "logs": [
        {
          "address": "0xd53b8bed28e122ea20dcc90d3991a614ec163a21",
          "topics": [
            "0xbc7cd75a20ee27fd9adebab32041f755214dbc6bffa90cc0225b39da2e5c2d3b",
            "0x0000000000000000000000007bc8778067f90c6fdff87a0cafba9c62fba907d5"
          ],
          "data": "0x",
          "blockHash": "0xce09a55c736ad01827d69d8ad87a75771317723a654241253259a87bcfe93fa3",
          "blockNumber": "0x1453b85",
          "transactionHash": "0xb150d207efe9d9e966e4e716a04f4f4da92cc008f7e79e5dbae30b55e2dee33a",
          "transactionIndex": "0x1c",
          "logIndex": "0x28",
          "removed": false
        }
      ],
      "logsBloom": "0x00000000000000000000000000000000400000000030000000000000000000000000000000000000000000000000000000000000000000000000000000000000000000000000000000000000000002100000000000000000000000000000000000000000000000000000000000000000000000000000000000000000000000000000000000000000000000000000000000000000000000000000000000080000000000000000000000000000000000000000000000000000000000000000000000000020000000000000200000000000000000000000000000000000000000000000000008000000000000000000000000000000000000000000000000000000",
      "type": "0x0",
      "transactionHash": "0xb150d207efe9d9e966e4e716a04f4f4da92cc008f7e79e5dbae30b55e2dee33a",
      "transactionIndex": "0x1c",
      "blockHash": "0xce09a55c736ad01827d69d8ad87a75771317723a654241253259a87bcfe93fa3",
      "blockNumber": "0x1453b85",
      "gasUsed": "0x992a",
      "effectiveGasPrice": "0xf4341",
      "from": "0x5a9e4ba56bf8139cacc7fe72cb18e9ea276317fb",
      "to": "0xd53b8bed28e122ea20dcc90d3991a614ec163a21",
      "contractAddress": null,
      "l1BaseFeeScalar": "0x1db0",
      "l1BlobBaseFee": "0x1",
      "l1BlobBaseFeeScalar": "0xd2730",
      "l1Fee": "0x62c5b7bfeb",
      "l1GasPrice": "0x81f6ae67e",
      "l1GasUsed": "0x640"
    }
  ],
  "libraries": [],
  "pending": [],
  "returns": {},
  "timestamp": 1734431421,
  "chain": 11155420,
  "commit": "27bb61d"
}